:020000040800F2
:1000000020DB0220CD02000805960008A34D000861
:1000100031890008250D0008D5F200080000000015
:10002000000000000000000000000000DF020008E7
:10003000290D000800000000E302000831AA0008B2
:10004000E7020008E7020008E702000875980008C8
:10005000E7020008E7020008E7020008E7020008DC
:10006000E7020008E7020008E7020008E7020008CC
:10007000E7020008E7020008E7020008E7020008BC
:10008000E7020008E7020008E7020008E7020008AC
:10009000E7020008E7020008E7020008E70200089C
:1000A000E7020008E7020008E7020008E70200088C
:1000B000E7020008E70200089DAA0008E70200081E
:1000C000E7020008E7020008E7020008E70200086C
:1000D000E7020008A1B00008E7020008E7020008F4
:1000E000E70200082D970008E7020008E702000871
:1000F000E7020008E7020008E7020008E70200083C
:10010000E7020008E7020008E7020008E70200082B
:10011000E7020008E7020008E7020008E70200081B
:10012000E7020008E7020008E7020008E70200080B
:10013000E7020008E7020008E7020008E7020008FB
:10014000E7020008E7020008E702000841960008FD
:10015000E7020008E7020008E7020008E7020008DB
:10016000E7020008E7020008E7020008E7020008CB
:10017000E7020008E7020008E702000800000000AC
:10018000E7020008E7020008E7020008E7020008AB
:10019000E7020008E7020008E7020008E70200089B
:1001A000E7020008E7020008E702000800F002F892
:1001B00000F075F80AA090E8000C82448344AAF18C
:1001C0000107DA4501D100F06AF8AFF2090EBAE88A
:1001D0000F0013F0010F18BFFB1A43F0010318477B
:1001E00090650400B06504000A444FF0000C10F85C
:1001F000013B13F0070408BF10F8014B1D1108BFA5
:1002000010F8015B641E05D010F8016B641E01F844
:10021000016BF9D113F0080F1EBF10F8014BAD1C94
:100220000C1B09D16D1E58BF01F801CBFAD505E0B2
:1002300014F8016B01F8016B6D1EF9D59142D6D30C
:10024000704700000023002400250026103A28BF34
:1002500078C1FBD8520728BF30C148BF0B60704738
:1002600003681B0A28BF41F08001642900F0368131
:10027000752900F03381782900F0AA81E42900F083
:100280006981632900F03D84732900F042840020D5
:1002900070471FB516F070FE1FBD10B510BD00F001
:1002A00053FC1146FFF7F5FF13F0A2FF00F071FCBD
:1002B00003B4FFF7F2FF03BC0FF0F1F930BF72B6E1
:1002C000704762B6704780F30888704709488047D6
:1002D00009480047FEE7FEE7FEE7FEE7FEE7FEE728
:1002E000FEE7FEE7FEE7FEE704480549054A064B40
:1002F0007047000039AA0008AD01000820D502208F
:1003000020DB022020D7022020D70220704753EAAA
:10031000020C00F069802DE9F04B4FF00006002B35
:100320001FBFB3FA83F503FA05F424FA05F65E401D
:1003300012BF1643B2FA82F502FA05F4C5F12005A0
:100340001EBF22FA05FC44EA0C04203556EA044C90
:100350004FEA144418BF641C4FF000084FF0000926
:10036000904271EB030C39D3002919BFB1FA81F720
:1003700001FA07F6B0FA80F700FA07F6C7F120078E
:100380001EBF20FA07FC46EA0C062037B6FBF4FC39
:10039000A7EB0507103F07F01F0BCBF120060CFA67
:1003A0000BFB2CFA06F644BFB3460026202FA4BF51
:1003B0005E464FF0000B5BEA060C08BF4FF0010BE6
:1003C00019EB0B09ABFB027C48EB0608C01B06FBD4
:1003D00002CC0BFB03CC71EB0C01C1E70B460246D0
:1003E00041464846BDE8F08B13B54FF000004FF092
:1003F0000001AFF30080BDE81C4070470FB4044912
:1004000010B503AA029800F089FB10BC5DF814FB3C
:10041000240000200FB41CB5074B06AA7B44694694
:100420000090059800F04BFB0020694600F05AFB55
:100430001CBC5DF814FB0000C506000070B5044646
:1004400085690068C10601D5302600E02026C00776
:1004500007D070BDD4E9012130469047206A401C86
:1004600020626D1EF6D570BD70B5044685690078B2
:10047000C00707D170BDD4E9012120209047206A30
:10048000401C20626D1EF6D570BD70B50C46054649
:10049000012A05D02878800600D5EA69002302E009
:1004A000012305E05B1C934202D2E05C0028F9D1F5
:1004B000A869E618C01AA861286A18442862284664
:1004C000FFF7BCFF04E0D5E9012114F8010B9047C8
:1004D000B442F8D32846FFF7C7FF70BD2DE9F041BD
:1004E0000646002410687529314616A510D0AFF3D2
:1004F0000080002802DA404213A507E031688A072D
:1005000001D512A502E0490704D511A5012401E097
:10051000AFF3008000210A2206F1240709E0B0FBB6
:10052000F2FCB0FBF2F302FB1C00303078541846AA
:10053000491C0028F3D123462A463046BDE8F04145
:1005400000F05EBA000000002D0000002B0000004B
:10055000200000002DE9F0418046D21D22F0070264
:100560000025D2E90002F52915A614D0011E72F16A
:10057000000106DA0023D0EB030063EB020211A6B0
:1005800008E0D8F800108B0701D50FA602E0490754
:1005900001D50EA601251146002408F1240704E028
:1005A00000F0E9F930323A55641C50EA0102F7D103
:1005B0002B46324621464046BDE8F04100F020BAC5
:1005C000000000002D0000002B00000020000000B3
:1005D00070B504460D4621461068AFF300802188AF
:1005E000090502D50F4A7A4402E00E4A7A440E32D7
:1005F000002104F1240305E000F00F060009965DD8
:100600005E54491C0028F7D120780023000704D548
:10061000702D02D009B1022311322046BDE870408E
:1006200000F0EEB90A5D04002DE9F05F894604464A
:100630004FF0000ADFF874B1FB44C0F820A0204658
:10064000E1688847002874D0252806D0D4E9012124
:100650009047206A401C2062F1E700265F46204652
:10066000E16888472028054607DB312D05D2781937
:1006700010F8200C08B10643F1E7B00701D526F0C9
:100680000406C4F81CA00027C4F818A02A2D09D01D
:1006900028460EF0FDFF38B304EB8708303DC8F85C
:1006A000185019E059F8041B204604EB87029161A9
:1006B000E1688847012F054618D1E069002820DA53
:1006C00026F020061DE0D8F8180000EB800005EBAE
:1006D00040003038C8F818002046E16888470546D1
:1006E0000EF0D6FF0028EED1012F0AD02E2D08D112
:1006F0002046E16888477F1C0546022F46F0200609
:10070000C4DBA069002803DA404246F00106A0617C
:10071000F00701D026F010066C2D0BD0682D09D003
:100720004C2D39D06A2D35D0742D35D07A2D33D05B
:1007300016E038E0E1682F4620468847B842054673
:1007400009D16C2F26D04FF48060E1680643204623
:100750008847054604E06C2F1AD04FF4807006439A
:100760000DB3A5F14100192802D8203546F40066E2
:100770004A462946204626604E46FFF771FD80B165
:1007800001280BD0F61D26F0070000F1080956E7F6
:100790004020E4E78020D8E70020D6E706F10409EE
:1007A0004DE7284652E7206ABDE8F09FE05C040070
:1007B00010B5431C02E010F8011B71B18107FAD19A
:1007C0004FF0013202C88C1A8C4314EAC211F9D0DE
:1007D000C01A0A0603D0C01E10BDC01A10BD0A04FC
:1007E00001D0801E10BD0902FCD0401E10BD032A9E
:1007F00040F2308010F0030C00F0158011F8013B3E
:10080000BCF1020F624498BF11F801CB00F8013B24
:1008100038BF11F8013BA2F1040298BF00F801CBE8
:1008200038BF00F8013B11F0030300F02580083ABF
:10083000C0F0088051F8043B083A51F804CBA0E816
:100840000810F5E7121D5CBF51F8043B40F8043B6B
:10085000AFF30080D20724BF11F8013B11F801CBA0
:1008600048BF11F8012B24BF00F8013B00F801CB71
:1008700048BF00F8012B704710B5203AC0F00B803C
:10088000B1E81850203AA0E81850B1E81850A0E894
:100890001850BFF4F5AF5FEA027C24BFB1E81850EE
:1008A000A0E8185044BF18C918C0BDE810405FEA5E
:1008B000827C24BF51F8043B40F8043B08BF7047DA
:1008C000D20728BF31F8023B48BF11F8012B28BFDF
:1008D00020F8023B48BF00F8012B70474FF00002A0
:1008E0000429C0F0128010F0030C00F01B80CCF142
:1008F000040CBCF1020F18BF00F8012BA8BF20F8B0
:10090000022BA1EB0C0100F00DB85FEAC17C24BF03
:1009100000F8012B00F8012B48BF00F8012B7047AD
:100920004FF0000200B5134694469646203922BF88
:10093000A0E80C50A0E80C50B1F12001BFF4F7AFD3
:10094000090728BFA0E80C5048BF0CC05DF804EBB5
:10095000890028BF40F8042B08BF704748BF20F823
:10096000022B11F0804F18BF00F8012B7047704721
:1009700070477047704730B5B0F10A024FEA900EE9
:1009800071F100034EEA817EB0EB0E0061EB910144
:100990004FEA101E4EEA017E10EB0E0041EB1111E2
:1009A0004FEA102E4EEA016E10EB0E0041EB1121C2
:1009B0004FEA104E4EEA014E10EB0E0041EB114192
:1009C000401841F100014FEAD00040EA41704FEA7F
:1009D000D10110EB80054FEA810444EA907444EBA6
:1009E00001046D1944EB0404521BA3414FF00003B2
:1009F00048BF0A3200D530BD401C41F1000130BD76
:100A00002DE9F0470D4699469246044600F1240828
:100A10000168880604D5E06921F01001216000E03A
:100A20000120A84201DD471B00E00027A1697A19D7
:100A300002EB0900081AA0612078C00602D4204603
:100A4000FFF7FCFC002608E0D4E901211AF80600B3
:100A50009047206A401C761C20624E45F4DB2078CB
:100A6000C0060AD52046FFF7E9FC06E0D4E90121DB
:100A700030209047206A401C2062381EA7F10107F1
:100A8000F4DC07E0D4E9012118F805009047206A5A
:100A9000401C2062281EA5F10105F3DC2046FFF76B
:100AA000E3FC2078000602D50220BDE8F087012093
:100AB000FBE7000001694A1C02610878704700B535
:100AC0008FB0CDE901310021059105497944CDE987
:100AD000031011466846FFF7A7FD0FB000BD0000E8
:100AE000E5FFFFFF0A6802F8010B0A60704710B5C6
:100AF000436913B1AFF3008001E0FFF7C6FC0120AA
:100B000010BD127800F124010A7000224A700122FF
:100B1000EDE711684FF0FF32E9E70000074B70B5D1
:100B20000D467B44FFF7CBFF0446284600F008F84B
:100B300010B14FF0FF3070BD204670BD1F2F010077
:100B4000007B00F080007047754600F02BF8AE4641
:100B500005006946534620F00700854618B020B5C9
:100B6000FFF7C2FBBDE820404FF000064FF0000742
:100B70004FF000084FF0000B21F00701AC46ACE845
:100B8000C009ACE8C009ACE8C009ACE8C0098D46B2
:100B9000704710B50446AFF300802046BDE8104012
:100BA000FFF786BB00487047C0D402205A49096845
:100BB00021F44031594AC2F804131146D1F8041304
:100BC00042681143544A11600168496821F48071F8
:100BD0000268516001684A68016942EA01210268BD
:100BE00051600168496821F04071026851600168F4
:100BF000496882681143026851600168896821F47C
:100C000000610268916001688968C26811430268E6
:100C10009160434AC16A914218D00168896821F005
:100C200070610268916001688968C26A1143026854
:100C300091600168896821F0405102689160016803
:100C40008968026B1143026891600BE00168896852
:100C500021F07061026891600168896821F040515B
:100C6000026891600168896821F002010268916060
:100C700001688A68816942EA410102689160416ABB
:100C8000D1B10168496841F40061026851600168AE
:100C9000496821F460410268516001684A68816ACC
:100CA000491E4FF4604393FAA3F3B3FA83F39940D8
:100CB0000A4301684A6005E00168496821F400615F
:100CC000026851600168C96A21F470010268D1624A
:100CD0000168CA6A018C491E42EA01510268D16268
:100CE0000168896821F400710268916001688A686E
:100CF000C16942EA4121026891600168896821F472
:100D000080610268916001688A68416942EA8121D4
:100D100002689160704700000423014000200140F8
:100D20000100000F00BFFEE7704730B50346002406
:100D3000102A01D1DC6800E0DC6A0024D1E900055A
:100D400040EA05200D8940EA05400D7B40EA056038
:100D50000443102A01D1DC6000E0DC62002030BDD9
:100D600030B503460024102A01D19C6800E09C6A3B
:100D70000024D1E9000540EA05200D8940EA05403C
:100D80000D7B40EA05600443102A01D19C6000E01D
:100D90009C62002030BD000010B5024600230868A8
:100DA000102801D1136800E0136A0D480340486819
:100DB00040F008008C682043CC6820430C69204335
:100DC0004C6940EA44208C6940EA44300343086897
:100DD000102801D1136000E01362002010BD000054
:100DE0008101F0FF70B504461D460023B5F5804F24
:100DF00013D154F822300C480340D1E9000640EAF0
:100E000006108E6840EA06208E8940EA06408E6908
:100E10003043034344F8223003E06FF0704044F85D
:100E20002200002070BD00000000F0CF10B5024687
:100E30000023086852F820301B480340D1E9010420
:100E40002043CC6820430C6920434C6920438C69C3
:100E50002043CC6920430C6A20434C6A20438C6AAF
:100E60002043CC6A2043CC6B20430C6B20434C6B5B
:100E7000204303438868082801D143F040030868F1
:100E800042F82030486BB0F5801F0AD1086840B1A5
:100E90004FF4807008614C6B08692043146820434C
:100EA0001060002010BD00008000E0FF30B5034658
:100EB00014460022601C53F8202002F04042D1E981
:100EC000000540EA05108D6840EA05208D8940EA5A
:100ED0000545088A401E45EA0055087D801E45EA02
:100EE00000608D6928430243601C43F82020186885
:100EF00000F4801038B1586820F47002088A401E4F
:100F000042EA00525A60002030BD30B5024600234C
:100F100000240868012816D013686FF30E03D1E986
:100F200001052843CD6828430D6928434D692843AE
:100F30008D692843CD6928430D6A28434D6A2843AB
:100F40000343136019E013686FF30E03D1E907053B
:100F500028434D6A2843034354686FF30E04D1E9D4
:100F600001052843CD6828430D6928434D6928436E
:100F70008D692843044313605460002030BD02464D
:100F8000506940EA4100506100207047F8B50646BC
:100F90000C461546002000900027D4E900010843C4
:100FA000A168491E40EA4110E16840EA41200090F2
:100FB0000098306101F092F8074609E0681C38B1EA
:100FC00025B101F08BF8C01BA84201D90320F8BD60
:100FD000B06900F020000028F0D100BFF7E770B53D
:100FE0000346154600220024012D1FD09A6802F006
:100FF00070420868401E4E68761E40EA06168868F1
:10100000401E46EA0026C868401E46EA0036088AA6
:10101000401E46EA0046888A401E46EA0056087E80
:10102000401E46EA006002439A6022E0DA6802F05D
:1010300070420868401E4E68761E40EA06168868B0
:10104000401E46EA0026088A401E46EA0046087E00
:10105000401E46EA006002439C6804F07044C86881
:10106000401E0603888A401E46EA00500443DA60A8
:101070009C60002070BD000038B504464FF0AA30D7
:1010800000900949897901FB04F004236A46002194
:1010900008F098FA044989796143481C04236A4698
:1010A000002108F08FFA38BD982200202DE9FC4776
:1010B00004460D4600275DE04FF0000820E001A83F
:1010C00030490090B1F802904FEAE97109EB917153
:1010D0008B102C49897901FB04F02A46002108F085
:1010E000A7F828494888C11700EB9171BDF8042082
:1010F000B2EBA10F00D007E008F101001FFA80F861
:10110000204880794045DADC00BF1E4880794045A0
:1011100002D10020BDE8FC87204607F029FE0646E4
:1011200026B1394618A0FFF769F921E0681CF8B12B
:101130000020019016E01349B1F802904FEAE971DE
:1011400009EB91718B100F498979BDF8042004FBDC
:1011500001200022114608F003FABDF80400401CEB
:1011600080B2019007488079BDF804108842E2DC23
:10117000781C87B2032F9FDB214609A0FFF73EF9B9
:101180000120C7E7982200206572726F7220657295
:1011900061736520626C6F636B3A25640D0A000011
:1011A00062616420626C6F636B20636865636B656A
:1011B000643A25640D0A000038B50446002000900A
:1011C0000F49897901FB04F001236A46002108F0E8
:1011D00077F89DF80000FF2810D10949897961430B
:1011E000481C01236A46002108F06AF89DF80000B7
:1011F000FF2801D1002038BD0120FCE70220FAE7DA
:10120000982200202DE9FE4F81460F4692461D464A
:101210000024002002908046019000263B488079FF
:10122000B9FBF0F839488079B9FBF0F100FB119077
:10123000019000BF404600F0E1F80646334840897F
:10124000B04202D20120BDE8FE8F00243AE00198AE
:10125000844221D305B32D484088C01BA84205D243
:101260002A484088C01B1FFA80FB01E01FFA85FB5B
:10127000264ACDF800B0927906FB0241234A9279C2
:1012800008FB024053463A4607F084FB02900027D1
:10129000DA44A5EB0B050AE01C4A927906FB0241F1
:1012A0001A4A927908FB024007F078FC02900298F3
:1012B00030B13046FFF7E0FE012000F029F8B9E731
:1012C000601C84B211488079A042C0DC0F4880794C
:1012D000A04219D1304600F099FA404607F048FD87
:1012E00000240CE00948406930F81400404504D15E
:1012F0000649496921F8146005E0601C84B203487E
:101300004089A042EEDC00BF00209CE7982200202C
:10131000F8B505460026002406E04FF6FF70304978
:10132000496921F81400641C2D484089A042F4D872
:1013300000202B498881002433E02949897901FB69
:1013400004F004236A46002107F0BAFF9DF800006C
:10135000FF2809D145B1224989796143481C0123FD
:101360006A46002107F0ACFF9DF80000FF2813D16A
:101370009DF802009DF8031000EB012618484089F3
:10138000B04203D91649496921F8164014488089AA
:10139000401C1349888103E0214612A0FFF72EF874
:1013A000641C0F484089A042C7D800240BE00C48B9
:1013B000406930F814000A494989884202DB08492B
:1013C000CC8104E0641C06484089A042EFD800BFED
:1013D0000348C089642801DA0220F8BD0020FCE738
:1013E0009822002062616420626C6F636B20696EDA
:1013F0006465783A25640D0A0000000070B5054662
:10140000002418484089401E17490968884204D2C0
:1014100014484089401E1449086005F00101124833
:10142000006800F023F80446601C90B90D4840891C
:10143000401E0D49096888420BD90A484089401E60
:101440000949086005F001010748006800F00EF83E
:101450000446601C10B94FF0FF3070BD02480460B4
:101460002046FAE79822002040000020F8B5054603
:101470000E460020009000246C1C14E0601E00F05A
:101480000100B0420ED1611E094A927901FB02F0BF
:1014900004236A46002107F013FF0098401C08B996
:1014A000601EF8BD641E002CE8D1601EF9E7000044
:1014B00098220020F8B5002600202D4988810024BC
:1014C00017E02046FFF778FE05468DB9204607F065
:1014D0004FFC05463DB1214626A0FEF78FFF204672
:1014E000FFF7CAFD04E022488089401C204988811A
:1014F000641C1F484089A042E3D81D48818921A06F
:10150000FEF77CFF1A488089642801DA0120F8BDC3
:1015100017488089C0EB401000EB4000642190FB2D
:10152000F1F600200090002415E02046FFF744FE6D
:1015300005467DB90E49897901FB04F002236A460C
:10154000194608F03FF80098401C00900098B042FF
:1015500000D104E0641C06484089A042E5D800BFE1
:101560000120FFF7D5FE08B10220D0E70020CEE72A
:101570009822002042616420626C6F636B3A25649C
:101580000D0A0000676F6F645F626C6F636B6E754E
:101590006D3A25640D0A000010B507F041FC08B152
:1015A000012010BD1F48406920B11E48416900203C
:1015B00013F0F0FB1B4840894100002013F0FCFBB6
:1015C000184948610A4652895100164A5069FFF786
:1015D00085F91448406908B90120E2E70120FFF7C6
:1015E00097FE044664B110A0FEF708FFFFF762FF04
:1015F0000446002C13D012A0FEF700FF0220D0E713
:101600000848418913A0FEF7F9FE0648818917A012
:10161000FEF7F4FE0348C18919A0FEF7EFFE002093
:10162000BFE7000098220020666F726D6174206E23
:10163000616E6420666C6173682E2E2E0D0A0000A8
:10164000666F726D6174206661696C6564210D0A54
:1016500000000000746F74616C20626C6F636B201B
:101660006E756D3A25640D0A00000000676F6F64A7
:1016700020626C6F636B206E756D3A25640D0A00F5
:1016800076616C696420626C6F636B206E756D3A75
:1016900025640D0A00000000014600220648C089AA
:1016A000884202D24FF6FF7070470348406930F815
:1016B00011201046F8E70000982200202DE9FF4F86
:1016C00083B014469A460026002500BF97E04E4896
:1016D000408890FBF4F04C498979484304992944A7
:1016E000B1FBF0F002900298FFF7D6FF8346464820
:1016F0004189594503D8012007B0BDE8F08F424821
:10170000408890FBF4F04049897948430499294482
:10171000B1FBF0F200FB1210604301903A4841889F
:101720000198B0FBF1F0384989790BFB0108364884
:1017300041880198B0FBF1F201FB12093248408860
:10174000A0EB0900B0FBF4F087B2AAEB0500B842A9
:1017500002D2AAEB050087B207FB04F083B21FFA9E
:1017600089F14046039A07F015FC0646032E39D14D
:1017700007FB04F083B21FFA89F14046039A07F091
:1017800009FC0646032E2DD107FB04F31FFA89F14D
:101790004046039AFFF736FD1B488079B8FBF0F00E
:1017A000311F0090FFF782FC06467EB9164880790B
:1017B000B8FBF0F000210090FFF778FC06461248D5
:1017C0008079B8FBF0F0009007F0D2FA4EB10E48E5
:1017D0008079B8FBF0F00090FFF74EFC0120FFF796
:1017E00097FD0026042E00D100260EB1022083E7CB
:1017F000039804FB07000390781E05446D1C5545B3
:10180000FFF465AF002077E79822002038B5044642
:10181000CC20009000250649897901FB04F00123C2
:101820006A46194607F0CEFE0546284638BD000038
:10183000982200202DE9FF4F87B014469A464FF0BA
:10184000000B0025681E029000BFA7E056484088A4
:1018500090FBF4F054498979484308992944B1FB35
:10186000F0F005900598FFF717FF06464E484189AE
:10187000B14203D801200BB0BDE8F08F4A48408840
:1018800090FBF4F048498979484308992944B1FB11
:10189000F0F200FB12106043039043484188039824
:1018A000B0FBF1F04049897906FB010004903E4805
:1018B00041880398B0FBF1F201FB12093A484088D5
:1018C000A0EB090080B20690BDF8180090FBF4F080
:1018D00080B20690AAEB050087B2BDF818008742D7
:1018E00001DBBDF8187007FB04F806A81FFA89F1A0
:1018F000C8F38F034FF0FF320090049807F098FC74
:101900008346BBF1000F01D00220B4E7BDF81800F8
:10191000B0EB980F09D11FFA88F31FFA89F1079AE3
:10192000049807F05BFD834601E04FF0010BBBF12B
:10193000000F07D10298B04204D03046FFF766FF8F
:1019400083460296BBF1000F22D0174880791649D2
:10195000498848430399401AB0FBF4F080B20690DE
:10196000AAEB050087B2BDF81800874201DBBDF87D
:10197000187007FB04F81FFA89F14346079A049888
:10198000FFF740FC8346BBF1000F01D0032072E754
:10199000781E05440798404407906D1C5545FFF498
:1019A00055AF002067E700009822002010B50648D8
:1019B00000F006FA0A21044800F0C0F9024800F0DD
:1019C0005BF980B210BD0000F422002070B504461F
:1019D0000025002604E0FFF7E9FF0544701CC6B2AD
:1019E000A642F8DBB5FBF4F080B270BD2DE9F05FE4
:1019F0008246884614462046E21704EB5272D21003
:101A00002146E31704EB5373DB10A4EBC3030BB1C4
:101A1000012300E000231A44624302F0FF099AF810
:101A200000600AF1010082460578812E05DB402D19
:101A300003DBFF2D01D0FF2E0DD14FF0000B06E090
:101A4000002008F8010B0BF1010000F0FF0BCB4563
:101A5000F6DBBDE8F09F7F2D03DAA5F14000C5B2AB
:101A600002E0A5F14100C5B2A6F18100C6B2BE20D8
:101A700010FB065000FB09F70C2C06D0102C0DD0E3
:101A8000182C14D0202C24D11AE01348D0F80900C7
:101A9000C1194A4640460DF0ADFC1AE00E48D0F898
:101AA0001100C1194A4640460DF0A4FC11E00A4855
:101AB000D0F81900C1194A4640460DF09BFC08E0D9
:101AC0000548D0F82100C1194A4640460DF092FC65
:101AD00000BF00BF00BFBCE760CB022018B50246C4
:101AE0000020009000BF92F83C00012801D10220A4
:101AF00018BD012082F83C0000BF0868092816D9EB
:101B00001068C0680B780A3B03EB43040723A3402B
:101B100098431368D8600B780A3B03EB430388684B
:101B200098401368DB6818431368D86013E01068A6
:101B300000690B7803EB43040723A3409843136821
:101B400018610B7803EB43038868984013681B699E
:101B50001843136818614868072817D21068406B4B
:101B60000B795B1E03EB83041F23A3409843136888
:101B70005863088880B20B795B1E03EB830398409F
:101B800013685B6B18431368586331E048680D288D
:101B900017D21068006B0B79DB1F03EB83041F2344
:101BA000A340984313681863088880B20B79DB1F41
:101BB00003EB8303984013681B6B18431368186387
:101BC00016E01068C06A0B790D3B03EB83041F23FA
:101BD000A34098431368D862088880B20B790D3B04
:101BE00003EB830398401368DB6A18431368D862D9
:101BF0001C4B1068984208D10868122805D11A4871
:101C0000006840F48000C3F80403164B1068984243
:101C100020D1164B0868984202D00868112819D1C3
:101C20001148006840F400000F4B18600F4B086823
:101C300098420FD10E4800680E4BB0FBF3F000EB5A
:101C400080004000009002E00098401E0090009844
:101C50000028F9D100BF002082F83C0000BF00BF7F
:101C600046E700000020014004230140120000105C
:101C70000800002040420F0001460868C06C704711
:101C800010B504460CB9012010BD1049E06A884225
:101C900000D000BF94F83D0028B9002084F83C0033
:101CA000204600F015F8022084F83D002046FEF79B
:101CB0007DFF00202064012084F83D0000BF00204B
:101CC00084F83C0000BF00BFDEE700000100000F09
:101CD00010B586B0044600BF00200090154800688B
:101CE00040F48070134908600846006800F4807072
:101CF000009000BF00BF00BF002000900D481438C6
:101D0000006840F001000B4914390860084600687B
:101D100000F00100009000BF00BF202001900320D0
:101D200002900020039001A9034800F0BBF806B020
:101D300010BD0000443802400000024070B5044667
:101D40000D4600262068806800F4806070B120682D
:101D5000806800F4807048B1042084F83D0000BF22
:101D6000002084F83C0000BF012070BD00F0B6F9EF
:101D7000064611E0681C78B125B100F0AFF9801B70
:101D8000A84209D9032084F83D0000BF002084F850
:101D90003C0000BF0320E8E72068006800F0020074
:101DA0000228E7D194F83D00252803D1352084F896
:101DB0003D0002E0152084F83D000020D5E700003A
:101DC00008B501460020009000BF91F83C000128B2
:101DD00001D1022008BD012081F83C0000BF91F82C
:101DE0003D00222803D1322081F83D0002E012207C
:101DF00081F83D000868806800F00100A0B908681B
:101E0000806840F001000A6890601B4800681B4A27
:101E1000B0FBF2F000EB4000009002E00098401EA2
:101E2000009000980028F9D100BF002081F83C0004
:101E300000BF1348006800F01F0058B908688068A8
:101E400000F04050A8B90868806840F080400A68F7
:101E500090600EE00B4A086890420AD108688068DA
:101E600000F0405028B90868806840F080400A6857
:101E700090600020AEE700000800002040420F0004
:101E8000042301400020014031B5002400F026F970
:101E9000044600BF00F022F9001B00998842F9D3E4
:101EA00038BD0000F8B502460B460025002400208E
:101EB0000021E6E0012606FA01F51E6806EA05049F
:101EC000AC4273D15E68022E02D05E68122E13D12E
:101ED000CF0802F1200656F827004E07F70E0F260E
:101EE000BE40B0434F07FF0E1E69BE403043CF08CF
:101EF00002F1200646F8270010684F000326BE4076
:101F0000B0431E7906F003064F00BE403043106018
:101F10005E68012E08D05E68022E05D05E68112E24
:101F200002D05E68122E13D190684F000326BE4087
:101F3000B0434F00DE68BE403043906050680126D9
:101F40008E40B0431E79C6F300168E403043506079
:101F5000D0684F000326BE40B0434F009E68BE408D
:101F60003043D0605E6806F08056B6F1805FA8D13D
:101F700000BF00260096454E366846F48046434F23
:101F80003E603E46366806F48046009600BF00BFBD
:101F90003F4E8F0856F827008E07370F0F26BE409A
:101FA000B0433C4EB24202D100262EE068E03A4EE9
:101FB000B24201D1012628E0384EB24201D10226B8
:101FC00023E0374EB24201D103261EE0354EB24225
:101FD00001D1042619E0344EB24201D1052614E0A5
:101FE000324EB24201D106260FE0314EB24201D14B
:101FF00007260AE02F4EB24201D1082605E02E4EF8
:10200000B24201D1092600E00A268F073F0FBE40E9
:1020100030431F4E8F0846F82700284E3068A043F3
:102020005E6806F48036B6F5803F00D12043234E2B
:102030003060361D3068A0435E6806F40036B6F5A1
:10204000003F00D120431D4E361D3060361D3068E4
:10205000A0435E6806F48016B6F5801F00D12043C9
:10206000164E08363060361D3068A0435E6806F4B0
:102070000016B6F5001F00D12043104E0C3630601C
:10208000491C1029FFF416AFF8BD00004438024087
:1020900008380140000002400004024000080240ED
:1020A000000C0240001002400014024000180240E0
:1020B000001C02400020024000240240003C01407D
:1020C000024613690B400BB1012000E0002070476D
:1020D0000AB1816101E00B04836170470148006827
:1020E000704700001C00002002480068401C0149A5
:1020F000086070471C00002070B5044600F052FED6
:102100004FF47A71B0FBF1F5284602F0F5FB00229E
:102110002146501E00F09DFA002070BD70B50446A7
:102120000E46154600BF94F8A000012801D10220F8
:1021300070BD012084F8A00000BF022084F8A10037
:1021400005EB850101EBC50204F1380101EB8200CA
:1021500034223146FEF790FB2A463146204606F0EF
:10216000AFFA01202168486284F8A10000BF002076
:1021700084F8A00000BF00BFDAE7000070B5044695
:10218000002500260CB9012070BD94F8A10028B9E3
:10219000002084F8A000204600F084F8022084F893
:1021A000A1002068806920F0704021688861D4E92E
:1021B00001010843E16808432169084321688969EE
:1021C0000843216888612068806835490840216893
:1021D0008860A08A050420688068A16929430843B3
:1021E000216888602068C0682D4908402168C8605F
:1021F000A08B05042068C068216A29430843216830
:10220000C860206800692649084021680861A08CE0
:10221000050420680069A16A294308432168086110
:10222000206840691E49084021684861A08D050466
:1022300020684069216B294308432168486194F86C
:102240003500050294F8360006042068C06A00F0E4
:102250007F402168C86246EA050094F834100843BC
:102260002168C96A08432168C8622068406B40F051
:102270000400216848632068406B40F00200216838
:1022800048632068806940F001002168886100206F
:10229000C4F8A400012084F8A100002074E7000025
:1022A00000F800F010B586B0044600BF0020009092
:1022B0004D48006840F080604B490860084600685F
:1022C00000F08060009000BF00BF00BF00200090C1
:1022D00045481438006840F4000043491439086048
:1022E0000846006800F40000009000BF00BF00BF77
:1022F000002000900846006840F002000860084690
:10230000006800F00200009000BF00BF00BF002086
:1023100000900846006840F0200008600846006809
:1023200000F02000009000BF00BF00BF0020009020
:102330000846006840F0400008600846006800F069
:102340004000009000BF00BF00BF00200090084682
:10235000006840F0800008600846006800F08000D7
:10236000009000BF00BF00BF00200090084600683A
:1023700040F4807008600846006800F480700090A7
:1023800000BF00BF20200190012002900390032095
:10239000049001A91548FFF785FD4FF48060019076
:1023A0000220029000200390032004900E2005904C
:1023B00001A90F48FFF776FD4FF40C60019001A9C9
:1023C0000C48FFF76FFD4FF47E40019001A90A48C9
:1023D000FFF768FD40F2F760019001A90748FFF799
:1023E00061FD06B010BD0000443802400004024008
:1023F0000014024000180240001C0240002002406D
:102400002DE9F04104460E461746984600BF94F861
:10241000A000012802D10220BDE8F081012084F84B
:10242000A00000BF022084F8A10008EB880000EBA8
:10243000C80104F1380000EB81052E60A86A304421
:102440006860AF60E86A3844E86042462946204642
:1024500006F036F901202168486284F8A10000BF27
:10246000002084F8A00000BF00BFD5E72DE9F041AF
:1024700005460E461746984600BF95F8A00001286D
:1024800002D10220BDE8F081012085F8A00000BF44
:10249000022085F8A10008EB880000EBC80105F1D7
:1024A000380000EB81040020206020683044606028
:1024B0000020A060A0683844E060A662E76242465F
:1024C0002146284606F0FCF801202968486285F874
:1024D000A10000BF002085F8A00000BF00BFD1E729
:1024E00070B504460E4615460CB9012070BD94F82F
:1024F000210028B9002084F82000204600F024F8AC
:10250000211D2068FEF748FC3146D4E90002FEF7A1
:1025100027FC2946D4E90002FEF707FC6068102872
:1025200006D12068006840F004002168086005E0DA
:102530002068006A40F0040021680862012084F8E5
:1025400021000020D2E7000010B586B0044600BF8D
:10255000002000903448006840F0010032490860D3
:102560000846006800F00100009000BF00BF00BFF7
:10257000002000902C480838006840F008002A49E4
:10258000083908600846006800F00800009000BFA5
:1025900000BF00BF002000900846006840F0100017
:1025A00008600846006800F01000009000BF00BFFF
:1025B00000BF002000900846006840F0400008601E
:1025C0000846006800F04000009000BF00BF4020B7
:1025D000019000200290012003900320049001A9A3
:1025E0001248FFF75FFC4FF4007001900220029048
:1025F00000200390032004900C20059001A90C48B2
:10260000FFF750FC4DF6330001900020039001A924
:102610000648FFF747FC4FF4F060019001A9054818
:10262000FFF740FC06B010BD38380240000C0240F5
:10263000001802400010024000BF00F01F020121FC
:1026400091404209920002F1E022C2F8001100BF5D
:1026500070472DE9F05F80460D461646002706F0CC
:10266000D3FF074639462A46334601F00700C0F13A
:10267000070ABAF1040F02D94FF0040A01E0C0F1D1
:10268000070AD14600F1040ABAF1070F02D24FF04F
:10269000000A01E0A0F1030AD4464FF0010A0AFA49
:1026A00009FAAAF1010A0AEA020A0AFA0CFA4FF038
:1026B000010B0BFA0CFBABF1010B0BEA030B4AEA23
:1026C0000B042146404606F0A7FFBDE8F09F00003E
:1026D00038B5002400BF002000902348006840F077
:1026E0008050214908600846006800F08050009042
:1026F00000BF00BF0120010491FAA1F1B1FA81F1FC
:102700001A4A42F82100FFF7E9FC044607E0FFF708
:10271000E5FC001BB0F57A7F01D9032038BD1448D1
:10272000406800F48030B0F5803FF0D101204104D2
:1027300091FAA1F1B1FA81F10C4A42F82100FFF7B8
:10274000CDFC044607E0FFF7C9FC001BB0F57A7F1B
:1027500001D90320E2E70648406800F40030B0F5F4
:10276000003FF0D10020D9E74038024000000E427F
:10277000007000400120010291FAA1F1B1FA81F14B
:10278000014A42F82100704700000E42F8B50446A5
:1027900000250026207800F0010020B9207800F004
:1027A0000200022866D10020CC498866FFF796FC1B
:1027B000054606E0FFF792FC401B642801D9032080
:1027C000F8BDC7480068C0F3C0600028F2D1207887
:1027D00000F0010098B147F6C07191FAA1F1B1FA89
:1027E00081F1606888404FF0E04292FAA2F2B2FABA
:1027F00082F2A16891400843B94984310860207889
:1028000000F00200022821D1B5488430006800F0B1
:10281000E0404FF0E04191FAA1F1B1FA81F120FAE4
:1028200001F660688101207B41EA006040EA0670A1
:10283000AB4984310860AA488C30006820F01F0042
:10284000E169491E0843A6498C3108600120A3496B
:102850008866FFF743FC054606E0FFF73FFC401B98
:10286000642801D90320ABE79D480068C0F3C0602D
:102870000028F2D0207800F00400042804D020784A
:1028800000F0080008287DD1002094490867FFF770
:1028900025FC054606E0FFF721FC401B642801D912
:1028A00003208DE78E480068C0F340700028F2D105
:1028B000207800F00400042834D18948883000686A
:1028C00000F0E0404FF0E04191FAA1F1B1FA81F15E
:1028D00020FA01F647F6C07191FAA1F1B1FA81F13F
:1028E000206988404FF0706292FAA2F2B2FA82F246
:1028F0006169914008434FF0E04191FAA1F1B1FACA
:1029000081F106FA01F10843754988310860081D14
:10291000006820F4F851206A401E41EA0020704906
:102920008C310860207800F00800082834D16C4809
:102930008830006800F070604FF0706191FAA1F18A
:10294000B1FA81F120FA01F647F6C07191FAA1F1CE
:10295000B1FA81F1206988404FF0706191FAA1F1DC
:10296000B1FA81F106FA01F108434FF0E04292FA20
:10297000A2F2B2FA82F2A169914008435849883123
:10298000086000E01CE0081D006820F44030616A27
:10299000084353498C310860012050490867FFF70C
:1029A0009DFB054606E0FFF799FB401B642801D913
:1029B000032005E74A480068C0F340700028F2D0C1
:1029C000207800F0200020287DD100BF002000905A
:1029D00043484030006840F0805041494031086031
:1029E0000846006800F08050009000BF00BF3D48DE
:1029F000006840F480703B490860FFF76FFB0546B4
:102A000006E0FFF76BFB401B642801D90320D7E6E3
:102A10003448006800F480700028F2D030487030EC
:102A2000006800F44070218D01F4407188424AD062
:102A30002B487030006820F4407601202A49086055
:102A40000020086026487030066006F0020098B149
:102A5000FFF744FB054608E0FFF740FB401B41F24F
:102A60008831884201D90320AAE61D4870300068E9
:102A7000C0F340000028EFD000BF208D00F440706C
:102A8000B0F5407F0CD116480830006820F4F810EB
:102A9000164AA16A1140084311490831086007E04D
:102AA0000F480830006820F4F8100D49083108601C
:102AB0000B4870300068218DC1F30B0108430849B1
:102AC0007031086000BF207800F01000102803D19A
:102AD00094F82C0006490860002071E60000474287
:102AE0000038024000700040400E4742FFFCFF0FDC
:102AF000E011474270B504460E460025A74800681D
:102B000000F00F00B0426FD2A4490E700846006872
:102B100000F00F00B04201D0012070BD207800F01D
:102B20000200022807D19E48006820F0F000A1684A
:102B300008439B490860207800F0010000283ED03F
:102B40006068012807D1964808380068C0F3404003
:102B5000B8B90120E1E76068022802D06068032864
:102B600007D18F4808380068C0F3406048B9012099
:102B7000D3E78B4808380068C0F3400008B901204B
:102B8000CBE78748006820F0030061680843844968
:102B90000860FFF7A3FA05466068012810D108E035
:102BA000FFF79CFA401B41F28831884201D903208B
:102BB000B3E77B48006800F00C000428F0D1CDE0BA
:102BC0006068022811D108E0FFF788FA401B41F243
:102BD0008831884201D903209FE77148006800F0DE
:102BE0000C000828F0D1B9E024E06068032810D177
:102BF00008E0FFF773FA401B41F28831884201D99F
:102C000003208AE76648006800F00C000328F0D132
:102C1000A4E008E0FFF762FA401B41F288318842E5
:102C200001D9032079E75E48006800F00C00002815
:102C3000F0D193E0207800F00200022807D1584834
:102C4000006820F0F000A16808435549086020782A
:102C500000F00100002877D06068012807D15048B3
:102C600008380068C0F34040B8B9012055E76068F3
:102C7000022802D06068032807D149480838006854
:102C8000C0F3406048B9012047E74548083800686C
:102C9000C0F3400008B901203FE74148006820F038
:102CA0000300616808433E490860FFF717FA0546CC
:102CB0006068012810D108E0FFF710FA401B41F2CC
:102CC0008831884201D9032027E73548006800F0A1
:102CD0000C000428F0D137E06068022810D108E029
:102CE000FFF7FCF9401B41F28831884201D90320EB
:102CF00013E72B48006800F00C000828F0D123E00F
:102D00006068032810D108E0FFF7E8F9401B41F2A2
:102D10008831884201D90320FFE62148006800F08D
:102D20000C000328F0D10FE008E0FFF7D7F9401BB3
:102D300041F28831884201D90320EEE61848006844
:102D400000F00C000028F0D114490E70084600680D
:102D500000F00F00B04201D00120DEE6207800F044
:102D60000400042807D10E48006820F4E050E16810
:102D700008430B490860207800F00800082808D1B3
:102D80000748006820F46040216940EAC100044916
:102D900008600F20FFF7B0F90020BEE6003C0240BB
:102DA0000838024010B500F045F80949096801F0FB
:102DB000F001F02292FAA2F2B2FA82F2D140054A70
:102DC000515CC840044908600846006810BD000016
:102DD00008380240826F01080800002010B5FFF794
:102DE000E1FF0749096801F4E0514FF4E05292FA1B
:102DF000A2F2B2FA82F2D140024A515CC84010BD40
:102E000008380240826F010810B5FFF7CBFF074971
:102E1000096801F460414FF4604292FAA2F2B2FAFA
:102E200082F2D140024A515CC84010BD08380240CD
:102E3000826F010870B50021002200230020274C7A
:102E4000246804F00C0424B1042C04D0082C41D1D3
:102E500003E0234840E023483EE0204C241F246840
:102E600004F03F011D4C241F246804F4800484B145
:102E70001C4CB4FBF1F5194C241F246847F6C076AE
:102E8000344096FAA6F6B6FA86F6F44005FB04F24C
:102E90000FE0134CB4FBF1F5104C241F246847F6E7
:102EA000C076344096FAA6F6B6FA86F6F44005FBEC
:102EB00004F20A4C241F246804F440344FF44035D3
:102EC00095FAA5F5B5FA85F5EC40641C6300B2FBF4
:102ED000F3F001E0024800BF00BF70BD08380240B7
:102EE0000024F40040787D0138B5044600252078A0
:102EF00000F00100002866D0F748006800F00C00E0
:102F000004280DD0F448006800F00C00082813D104
:102F1000F148001F006800F48000B0F5800F0BD16D
:102F2000ED4808380068C0F3404000284BD0606886
:102F3000002848D1012038BD0020E749891F0870CA
:102F4000FFF7CCF8054608E0FFF7C8F8401B41F250
:102F50008831884201D90320EDE7DF48083800684E
:102F6000C0F340400028EFD12079DB49891F087069
:102F70006068A0B1FFF7B2F8054608E0FFF7AEF8C9
:102F8000401B41F28831884201D90320D3E7D2485F
:102F900008380068C0F340400028EFD013E0FFF786
:102FA0009DF8054608E0FFF799F8401B41F288318B
:102FB000884201D90320BEE7C74808380068C0F33B
:102FC00040400028EFD1207800F00200022869D1AB
:102FD000C148006800F00C0058B1BF48006800F01C
:102FE0000C00082821D1BC48001F006800F48000B4
:102FF000D8B9B94808380068C0F3400020B1E0688B
:10300000012801D0012096E7B3480838006820F075
:10301000F800F82292FAA2F2B2FA82F22169914003
:103020000843AD49083908603CE0E06828B3012056
:10303000AA490860FFF752F8054606E0FFF74EF888
:10304000401B642801D9032075E7A34808380068AD
:10305000C0F340000028F1D09F480838006820F0F5
:10306000F800F82292FAA2F2B2FA82F221699140B3
:10307000084399490839086014E00020974908601E
:10308000FFF72CF8054606E0FFF728F8401B6428F8
:1030900001D903204FE7904808380068C0F340008A
:1030A0000028F1D1207800F0080008282CD16069B0
:1030B000A8B101208A490860FFF710F8054606E02C
:1030C000FFF70CF8401B642801D9032033E782483E
:1030D0006C300068C0F340000028F1D014E00020FC
:1030E0007F490860FEF7FAFF054606E0FEF7F6FFA7
:1030F000401B642801D903201DE777486C30006825
:10310000C0F340000028F1D1207800F0040004282A
:103110006FD100BF002000906F483830006840F049
:1031200080506D49383108600846006800F08050D2
:10313000009000BF00BF6B48006840F48070694990
:103140000860FEF7CBFF054606E0FEF7C7FF401B11
:10315000642801D90320EEE66248006800F480701C
:103160000028F2D000205C4968310870FEF7B6FFF5
:10317000054608E0FEF7B2FF401B41F28831884265
:1031800001D90320D7E6544868300068C0F34000F6
:103190000028EFD1207A504968310870A068A0B1AA
:1031A000FEF79CFF054608E0FEF798FF401B41F242
:1031B0008831884201D90320BDE64748683000685D
:1031C000C0F340000028EFD013E0FEF787FF05466C
:1031D00008E0FEF783FF401B41F28831884201D9A5
:1031E0000320A8E63C4868300068C0F3400000288F
:1031F000EFD1A069F0B33848006800F00C0008284F
:1032000072D0A069022850D1002034490866FEF728
:1032100065FF054606E0FEF761FF401B642801D903
:10322000032088E62C4808380068C0F34060002876
:10323000F1D1D4E90701084347F6C07292FAA2F22D
:10324000B2FA82F2616A914008430122A16AC2EB9C
:1032500051014FF4403292FAA2F2B2FA82F2914056
:1032600008434FF0706292FAA2F2B2FA82F2E16A77
:10327000914000E03AE008431749091F0860012027
:1032800016490866FEF72AFF054606E0FEF726FF08
:10329000401B642801D903204DE60F480838006818
:1032A000C0F340600028F1D020E000200B49086600
:1032B000FEF714FF054606E0FEF710FF401B6428EA
:1032C00001D9032037E6044808380068C0F340609D
:1032D0000028F1D10AE007E0083802400000474228
:1032E000800E474200700040012024E6002022E6C4
:1032F000704702460023106800F1500303EB81037E
:103300001868704710B50023046804F1500303EBFC
:1033100081031A6010BD00000449096809B9012140
:1033200000E00021014A11607047000080824042A5
:1033300010B504462068C068C0F3802078B12068CA
:10334000806800F4804050B12046FFF7E5FF206818
:10335000C06800F0800060F490602168C8604FF49D
:103360008000024908600120607710BD143C0140D4
:1033700010B5044601A0FDF741F810BD414C415283
:103380004D2041210D0A000010B504462068C06898
:10339000C0F3002078B12068806800F4805050B1FC
:1033A0002046FFF7E5FF2068C06800F0800060F469
:1033B000C0702168C8602068C068C0F3402078B140
:1033C0002068806800F4005050B12046FFF790FF5D
:1033D0002068C06800F0800060F420702168C86038
:1033E0004FF40030024908600120607710BD0000F2
:1033F000143C014070B505460B461646002428686B
:1034000040680E4900EA0104200CD870C4F304207F
:10341000587004F03F009870C4F3423018705EB9E1
:10342000D87806F08BF9D870587806F087F958707C
:10343000987806F083F99870002070BD3FFFFF0078
:1034400070B504460B46164600252068806A586011
:1034500020680069C0F30E009860206800680F497A
:1034600000EA0105C5F305401870C5F30620587041
:1034700005F07F00987005F48000000CD8705EB9EC
:10348000187806F05BF91870587806F057F95870FC
:10349000987806F053F99870002070BD7F7F7F0008
:1034A00010B504460CB9012010BD607F20B9002082
:1034B0002077204600F04EF80220607700BFCA2037
:1034C0002168486253202168486200BF204606F008
:1034D0004DF940B100BFFF202168486200BF0420C1
:1034E00060770120E0E7206880681949084021687A
:1034F00088602169606808436169084321688968B8
:103500000843216888602168E068086120680169D3
:10351000208941EA0040216808612068C06820F0E5
:1035200080002168C8602068006C20F48020216839
:1035300008642068006CA16908432168086400BF22
:10354000FF202168486200BF012060770020ABE7C0
:10355000BFFF8FFF10B59AB0044600BF0020019056
:103560001148006840F080500F4908600846006824
:1035700000F08050019000BF00BFFFF7FBF804206F
:103580000E9000201490012010900EA8FFF7ACFCC4
:1035900020200290C0000C9002A8FFF7F7F801204D
:1035A000024908601AB010BD403802403C0E474244
:1035B0002DE9F04104460D461646002700BF207F46
:1035C000012802D10220BDE8F0810120207700BF50
:1035D000022060774EB9687800F01000102804D1FE
:1035E000687800F0EF000A30687086B9E87806F075
:1035F000B0F80304687806F0ACF843EA0023A87832
:1036000006F0A7F80343287843EA403711E06878CA
:1036100006F094F80746A87806F090F80746E87890
:103620000004697840EA0120A9780843297840EA33
:10363000413700BFCA202168486253202168486290
:1036400000BF204606F092F860B100BFFF2021685D
:10365000486200BF0420607700BF0020207700BFD1
:103660000120B0E716483840216848602068C068EB
:1036700020F080002168C8602068806800F0200089
:1036800080B9204600F0B8F860B100BFFF20216883
:10369000486200BF0420607700BF0020207700BF91
:1036A000012090E700BFFF202168486200BF012091
:1036B000607700BF0020207700BF00BF83E70000D5
:1036C0003FFFFF002DE9F04104460D461646002756
:1036D00000BF207F012802D10220BDE8F081012037
:1036E000207700BF02206077CEB92068806800F0A4
:1036F000400000B102E00020E87000BF287806F02A
:1037000028F80304687806F024F843EA0023A87830
:1037100006F01FF80343E87843EA004716E0206804
:10372000806800F0400020B1287806F007F80746CE
:1037300002E00020E87000BF28780004697840EAC1
:103740000120A9780843E97840EA014700BFCA2070
:103750002168486253202168486200BF204606F075
:1037600005F860B100BFFF202168486200BF042057
:10377000607700BF0020207700BF0120ADE71D4823
:103780003840216808602068806820F48020216823
:103790008860D5E9030108432168896808432168E6
:1037A00088602068C06820F080002168C8602068B8
:1037B000806800F0200080B9204600F01DF860B15C
:1037C00000BFFF202168486200BF0420607700BF6F
:1037D0000020207700BF01207FE700BFFF20216885
:1037E000486200BF0120607700BF0020207700BF43
:1037F00000BF72E77F7F7F0070B504460025206818
:10380000C06820F0A0002168C860FEF767FC05468C
:1038100007E0FEF763FC401BB0F57A7F01D9032077
:1038200070BD2068C06800F020000028F1D00020A2
:10383000F6E770B504460D460CB9012070BD94F84A
:103840002C0028B9002084F82D00204600F012F842
:10385000022084F82C00211D2068FDF756FB294624
:10386000D4E90002FDF7BBFB012084F82C00002006
:10387000E4E7000010B586B0044600BF00200090C9
:103880004348006840F0010041490860084600686C
:1038900000F00100009000BF00BF00BF00200090BA
:1038A0003B480838006840F004003949083908608E
:1038B0000846006800F00400009000BF00BF00BF91
:1038C000002000900846006840F0080008600846A4
:1038D000006800F00800009000BF00BF00BF00209B
:1038E00000900846006840F0100008600846006834
:1038F00000F01000009000BF00BF00BF002000904B
:103900000846006840F0200008600846006800F0A3
:103910002000009000BF00BF00BF002000900846BC
:10392000006840F0400008600846006800F0400071
:10393000009000BF00BF0D200190022002900120E6
:103940000390032004900C20059001A91148FEF774
:10395000A9FA4CF20370019001A90F48FEF7A2FAF0
:103960004FF68370019001A90C48FEF79BFA4FF6C1
:103970003F00019001A90A48FEF794FA48F2371077
:10398000019001A90748FEF78DFA06B010BD0000AE
:103990003838024000080240000C0240001002408B
:1039A000001402400018024070B504460D4694F819
:1039B0002C00022800D170BD022084F82C0029467A
:1039C0002068FDF7DCFA012084F82C000020F2E7E3
:1039D00070B504460D46164694F82C00022800D116
:1039E00070BD022084F82C00324629462068FDF77D
:1039F000CDFA2868022803D1052084F82C0002E0C3
:103A0000012084F82C000020EAE72DE9F04103466C
:103A10000020002293F8204081F856409C8CA1F8A9
:103A200054409C6A220E94090C70C2F383044C70BB
:103A300002F003048C709C6AC4F30742CA701C8DA8
:103A4000C4F307220A7193F828204A71DC6A220E17
:103A50004FF6FF7404EA0214CC80DC6AC4F3074218
:103A6000CC8844EA1214CC8002F00F040C729C8DB6
:103A7000C4F30722D4094C72C2F380148C72C2F3CF
:103A80004014CC72C2F300140C7300244C731C6AF3
:103A900014B11C6A012C4DD19407240D0C612C2407
:103AA000E25C0C6944EA82040C611C6B220E0C6916
:103AB00044EA92140C61C2F3C2040C7502F00704CC
:103AC0004C751C6BC4F3074254098C75C2F3820415
:103AD000CC759407640F0C761C8EC4F307220C7E01
:103AE00044EAD2140C760C69641C0025C1E9124525
:103AF0000C7ED1E91267A41C012505FA04F44FEAF3
:103B0000E47CA6FB045807FB048406FB0C44C1E9D3
:103B100012540D7A0124AC400C650026D1E91257ED
:103B20000C6DA5FB04C807FB048405FB0644C1E932
:103B300012C435E01C6A022C31D12C24E25C9406BC
:103B4000A40A0C611C6B220E0C6944EA02240C616D
:103B50001C6BC4F307420C6914430C611C8EC4F344
:103B600007220C690025641C45EB050C4FF4007717
:103B70000026A4FB07580CFB078704FB067C4FF4C8
:103B800080672C466546B446A4FB076805FB07859D
:103B900004FB0C54C1E912647C100C6500E0292080
:103BA000C2F3801401F8194F9406640E4C7030244F
:103BB000E25C4C7844EAD2144C7002F07F048C70C2
:103BC0005C6B220ED409CC70C2F341140C71C2F3A9
:103BD00082044C719407240F8C715C6BC4F3074210
:103BE0008C7944EA92148C71C2F34014CC71002495
:103BF0000C7202F001044C729C8EC4F30722D409AB
:103C00008C72C2F38014CC72C2F340140C73C2F3F2
:103C100000144C73C2F381048C7302F00304CC7360
:103C20003424E25C54080C7401244C749C6B220E06
:103C3000CA7419399C6BC4F307424FF6FF7404EA47
:103C40000225CD851C8FC4F30722CC8D1443CC856F
:103C500093F8382015060D63DC6B220E0C6B44EADA
:103C600002450D63DC6BC4F307420C6B44EA02258A
:103C70000D639C8FC4F307220C6B14430C633C242C
:103C8000E25C342462541C6C220E352462541C6C99
:103C9000C4F3074215068D634024E45AC4F3072297
:103CA0008C6B44EA02458D634024E25C8C6B44EAF1
:103CB00002258D635C6C220E8C6B14438C635C6CF0
:103CC000C4F307423C24645C44EA12143C256C545F
:103CD0001407250DCD874424E45AC4F30722CC8F62
:103CE0001443CC874424E25C5508402465540125E4
:103CF00041246554BDE8F08130B58BB004460D46D3
:103D000000200A902077204600F044F8002004901C
:103D100005900690079008907620099007A807C89C
:103D20008DE80700206804A90EC905F0D7FD2046DC
:103D300006F07CFA0A909DF8280018B19DF828003A
:103D40000BB030BD204606F009F90A909DF8280016
:103D500010B19DF82800F3E729462046FFF755FEED
:103D60000A909DF8280040B9B5F8540001040A46AD
:103D70000023204606F054FB0A90D4E90412A069FF
:103D8000CDE90012029094E80F0005F0A7FD9DF820
:103D90002800D5E710B586B0044600BF002000908B
:103DA0002948006840F40060274908600846006818
:103DB00000F40060009000BF00BF00BF0020009032
:103DC00021481438006840F480001F491439086005
:103DD0000846006800F48000009000BF00BF00BFEC
:103DE000002000900846006840F004000860084683
:103DF000006800F00400009000BF00BF00BF00207A
:103E000000900846006840F0080008600846006816
:103E100000F00800009000BF00BF4FF4F850019080
:103E20000220029001200390032004900C200590B2
:103E300001A90648FEF736F80420019001A90448BC
:103E4000FEF730F806B010BD4438024000080240CA
:103E5000000C02402DE9FF5F8CB0044617469846DF
:103E6000DDE91AB94FF0000A00250D9E00202168F7
:103E7000C862206A022809D14FF4007B02020023A5
:103E800038464146FCF743FA07468846CDF81CB051
:103E9000102008904020099000200A904FF4806084
:103EA0000B9007A9206805F03CFD1021204605F085
:103EB000F1FD8246BAF1000F03D0504610B0BDE8C4
:103EC000F09F4FF0FF30019009FB0BF00290902023
:103ED000039002200490002005900120069001A983
:103EE000206805F0CFFCB9F1010F02D9122008902B
:103EF00001E011200890079707A9206805F011FD3F
:103F0000B9F1010F22D91221204605F0C3FD8246E6
:103F1000BAF1000F01D05046D0E70FE02068406BA7
:103F200000F4004050B1002505E0206805F0F5FCE4
:103F300046F825006D1C082DF7D320362068406B0D
:103F400040F22A3108400028E8D021E01121204623
:103F500005F0A0FD8246BAF1000F01D05046ADE752
:103F60000FE02068406B00F4004050B1002505E0F0
:103F7000206805F0D2FC46F825006D1C082DF7D30B
:103F800020362068406B40F22A6108400028E8D0C3
:103F90002068406B00F4807070B1B9F1010F0BD94B
:103FA000206A28B1206A012802D0206A022803D1A1
:103FB000204600F047F882462068406B00F0080079
:103FC00030B10820216888634FF0040A504675E735
:103FD0002068406B00F0020028B10220216888634D
:103FE000824650466AE72068406B00F0200030B1FE
:103FF0002020216888634FF0060A50465EE720685B
:10400000406B00F4007038B14FF400702168886391
:104010004FF0070A504651E74FF0FF3505E02068A2
:1040200005F07BFC3060361D6D1E2068406B00F48F
:10403000001008B1002DF2D140F2FF5021688863D2
:1040400050463BE730B585B004460025002000907F
:104050000C20019040200290002003904FF48060DB
:1040600004906946206805F05CFC0C21204605F0B0
:1040700011FD0546284605B030BD70B58AB004462E
:104080000D460026206A032803D1272630460AB0B1
:1040900070BD206A28B1206A012802D0206A022857
:1040A00028D1B5F5805F01D127260EE0B5F5006F68
:1040B00004D1204606F01BFA064606E025B9204644
:1040C00006F0CAF9064600E026269EB9606804900C
:1040D000A0680590E0680690079560690890A0695F
:1040E000099007A807C88DE80700206804A90EC931
:1040F00005F0F4FB3046CAE72DE9FF5F8EB00446B9
:1041000017469846DDF874B00020029081460025DD
:1041100000260190DDF83CA000902168C862206A6A
:10412000022809D100021C9002460023384641466D
:10413000FCF7EDF8074688461C98099010200A9075
:1041400040200B9000200C904FF480600D9009A946
:10415000206805F0E6FB1021204605F09BFC02904C
:10416000029818B1029812B0BDE8F09FBBF1010FA0
:1041700002D919200A9001E018200A90099709A98C
:10418000206805F0CEFBBBF1010F05D919212046AF
:1041900005F080FC029004E01821204605F07AFC2E
:1041A0000290029808B10298DDE71C980BFB00F919
:1041B0004FF0FF3003901C980BFB00F00490902010
:1041C00005900020069007900120089003A9206820
:1041D00005F058FBBBF1010F3AD931E02068406B84
:1041E00000F4804060B3A9EB050020281BD2A9EBA6
:1041F000050000F0030018B9A9EB0500800803E0F2
:10420000A9EB05008008401C0190002607E05146FC
:10421000206805F09AFB0AF1040A2D1D761C01980E
:1042200086420DD2F3E7002605E00AEB86012068FE
:1042300005F08BFB761C082EF7D30AF1200A2035F7
:104240002068406B40F21A3108400028C6D039E09F
:1042500031E02068406B00F4804060B3A9EB0500BA
:1042600020281BD2A9EB050000F0030018B9A9EB28
:104270000500800803E0A9EB05008008401C0190C0
:10428000002607E05146206805F05FFB0AF1040AAA
:104290002D1D761C019886420DD2F3E7002605E01D
:1042A0000AEB8601206805F050FB761C082EF7D338
:1042B0000AF1200A20352068406B40F21A6108405C
:1042C0000028C6D02068406B00F4807070B1BBF14C
:1042D000010F0BD9206A28B1206A012802D0206A78
:1042E000022803D12046FFF7ADFE02902068406B04
:1042F00000F0080030B10820216888630420029093
:10430000029830E72068406B00F0020028B10220DC
:10431000216888630290029825E72068406B00F0CE
:10432000100030B1102021688863052002900298A7
:1043300019E72068406B00F4007038B14FF400704A
:10434000216888630720029002980CE740F2FF5032
:10435000216888636946204605F07EFE029004E0ED
:104360006946204605F078FE0290029838B99DF81B
:1043700000000728F4D09DF800000628F0D002982D
:10438000F1E610B504460CB9012010BD94F85100B7
:1043900028B9002084F85000204600F037F80220A9
:1043A00084F851002068006820F04000216808600F
:1043B000D4E901010843E1680843216908436169C0
:1043C0000843218B01F400710843E1690843216A25
:1043D0000843A16A0843216808600421A06901EA32
:1043E0001040616A0843216848602168E06A0861FA
:1043F0002068C06920F400602168C8610020606501
:10440000012084F851000020BFE7000010B586B0FD
:10441000044600BF002000901748006840F02000CC
:10442000154908600846006800F02000009000BFB1
:1044300000BF00BF002000900F481430006840F417
:1044400080100D49143108600846006800F480109F
:10445000009000BF00BF4FF46070019002200290F6
:1044600001200390022004900520059001A9034833
:10447000FDF718FD06B010BD3038024000140240B0
:104480002DE9F84F04460E4617461D46DDF82890E4
:104490004FF00008C24694F85180B8F1010F02D0E5
:1044A000B8F1220F76D10EB107B115B90120BDE8E0
:1044B000F88F00BF94F85000012801D10220F6E7E0
:1044C000012084F8500000BF94F85100012802D167
:1044D000322084F8510000206065A763A587E58736
:1044E0002663A586E586A064E064A06AB0F5005F57
:1044F0000DD100BF2068006820F4005021680860DA
:104500002068006840F400502168086000BF2068FF
:10451000006800F04000402805D02068006840F0A6
:10452000400021680860E068B0F5006F75D16068F0
:1045300030B16068B0F5827F0CD1E08E012809D1DE
:10454000206B00882168C860206B801C2063E08E8F
:10455000401EE086E08EF0B9A06AB0F5005F05D19C
:104560002068006840F48050216808604B460022B3
:104570000121204606F0AEF808B1032097E7206835
:10458000C068A16B0880A06B801CA063E08F401EF8
:10459000E087C7E01BE131E04B46002202212046C4
:1045A00006F098F808B1032081E7206B00882168A5
:1045B000C860206B801C2063E08E401EE086E08E89
:1045C00048B9A06AB0F5005F05D12068006840F4E2
:1045D0008050216808604B4600220121204606F0E9
:1045E00079F808B1032062E72068C068A16B0880F1
:1045F000A06B801CA063E08F401EE087E08E002847
:10460000CADC60680028C4D14B4600220121204644
:1046100006F060F810B1032049E70AE02068C0689E
:10462000A16B0880A06B801CA063E08F401EE08718
:1046300078E0606830B16068B0F5827F0BD1E08EC1
:10464000012808D1216B481C206308782168C860C4
:10465000E08E401EE086E08ED0B9A06AB0F5005F23
:1046600005D12068006840F48050216808604B46FE
:1046700000220121204606F02DF808B1032016E79C
:104680002068C068A16B0870E08F401EE08749E099
:1046900030E04B4600220221204606F01BF808B10C
:1046A000032004E7216B481C206308782168C86058
:1046B000E08E401EE086E08E48B9A06AB0F5005F4B
:1046C00005D12068006840F48050216808604B469E
:1046D00000220121204605F0FDFF08B10320E6E697
:1046E0002068C068C1B2A26B501CA0631170E08F3B
:1046F000401EE087E08E0028CBDC606890B94B4616
:1047000000220121204605F0E5FF08B10320CEE696
:104710002068C068C1B2A26B501CA0631170E08F0A
:10472000401EE087A06AB0F5005F12D14B46002220
:104730000121204605F0CEFF28B1606D40F0020057
:1047400060650320B3E62068C06880B20090BDF8C1
:1047500000004B4601228021204605F0BBFF28B116
:10476000606D40F0200060650320A0E6012084F821
:10477000510020688068C0F3001AA06AB0F5005F9D
:104780001FD1BAF1000F1CD0606D40F002006065CF
:10479000A06AB0F5005F0DD100BF2068006820F46A
:1047A0000050216808602068006840F400502168CB
:1047B000086000BF00BF002084F8500000BF012047
:1047C00075E600BF002084F8500000BF6FE60220AD
:1047D0006DE670B504460E4615460CB9012070BD55
:1047E00094F8490028B9002084F84800204600F0D9
:1047F0001DF804F108012068FCF718FB3146A26897
:104800002068FCF753FB2946236BD4E90102FCF72F
:10481000E9FAA168206850F8210040F00100A26880
:10482000216841F822000020D9E7000010B586B0C9
:10483000044600BF002000902248006840F00100BC
:10484000204908600846006800F00100009000BFA1
:1048500000BF00BF002000901A480838006840F0F0
:1048600008001849083908600846006800F0080088
:10487000009000BF00BF00BF002000900846006805
:1048800040F0100008600846006800F0100000903A
:1048900000BF00BF4EF2B3700190022002900120D1
:1048A0000390032004900C20059001A90648FDF711
:1048B000F9FA4FF68070019001A90448FDF7F2FA69
:1048C00006B010BD38380240000C02400010024013
:1048D000042808D14FF0E021096941F004014FF0AC
:1048E000E022116107E04FF0E021096921F00401A5
:1048F0004FF0E0221161704770B504462546681EEE
:10490000B0F1807F01D301200FE0681E4FF0E0215D
:1049100048610F214FF0FF3004F07EFE00204FF081
:10492000E021886107200861002070BD10B50446B1
:104930000CB9012010BD94F8390028B9002084F882
:104940003800204600F00CF8022084F83900211DC0
:10495000206806F0C5F8012084F839000020E9E756
:10496000704701460868C06840F001000A68D060DE
:104970000868006840F001000A6810600020704775
:104980007047F8B50446002500262068006800F04E
:1049900001052068C06800F480767DB176B100BF63
:1049A0000020009020680068009020684068009017
:1049B00000BF00BFE06B40F00100E06320680068CA
:1049C000C0F340052068406900F001067DB176B172
:1049D00000BF0020009020680068009020684068B8
:1049E000009000BF00BFE06B40F00400E06320686F
:1049F0000068C0F380052068406900F001067DB1C1
:104A000076B100BF00200090206800680090206808
:104A10004068009000BF00BFE06B40F00200E06320
:104A200020680068C0F3C0052068406900F00106F6
:104A30007DB176B100BF0020009020680068009032
:104A400020684068009000BF00BFE06B40F00800A5
:104A5000E06320680068C0F340152068C06800F07B
:104A600020061DB116B1204606F0F4F82068006853
:104A7000C0F3C0152068C06800F080061DB116B1F3
:104A8000204606F057FA20680068C0F380152068B9
:104A9000C06800F040061DB116B1204606F0C2F80D
:104AA000E06B28B1012084F839002046FFF768FF49
:104AB000F8BD10B504460CB9012010BDA06900B1C5
:104AC00000E000BF94F8390028B9002084F83800CD
:104AD000204600F025F8022084F839002068C068DC
:104AE00020F400502168C860204606F011F92068C3
:104AF000006920F49040216808612068406920F036
:104B00002A00216848612068C06840F4005021688C
:104B1000C8600020E063012084F839000020CCE761
:104B200010B586B004462849206888424AD100BFA3
:104B3000002000902548006840F0010023490860EB
:104B40000846006800F00100009000BF00BF00BFF1
:104B5000002000901D481430006840F010001B49F0
:104B6000143108600846006800F01000009000BF93
:104B700000BF4815019002200290012003900220FE
:104B800004900720059001A91148FDF78BF94FF417
:104B90008060019001A90E48FDF784F92068C06883
:104BA00020F040002168C8602068C06840F0200004
:104BB0002168C8602520FDF73FFD0322114625200E
:104BC000FDF747FD06B010BD00100140303802402F
:104BD000000002402DE9F04704460D46164699466E
:104BE0004FF0000894F83980B8F1010F02D0B8F105
:104BF000120F69D105B116B90120BDE8F08700BFD9
:104C000094F83800012801D10220F6E7012084F849
:104C1000380000BF0020E06394F83900122803D167
:104C2000322084F8390002E0222084F83900A68579
:104C3000E68535E0E08D401EE085A068B0F5805F38
:104C400018D14B4600222021204606F0ABF908B1CE
:104C50000320D2E72F46206930B920684068C0F3AE
:104C600008003880AD1C1BE020684068C0B2388066
:104C70006D1C15E04B4600222021204606F092F9DB
:104C800008B10320B9E7206920B92068406805F819
:104C9000010B05E02068406800F07F0005F8010B7B
:104CA000E08D0028C6DC94F83900322803D11220A8
:104CB00084F8390002E0012084F8390000BF0020A8
:104CC00084F8380000BF98E7022096E770477047E5
:104CD00001464869806880B2704708B50146D1F83E
:104CE000CC00006800900098C0F3414008BD024627
:104CF00002F29F30405C7047024602F5557050F852
:104D00002100704770B504460E4600250021C4F806
:104D1000101300BF0BE0002104F5467040F8251089
:104D20003C3040F825103C304155681CC5B20F2D71
:104D3000F1DB0821A4F8B6133146204609F0D8F873
:104D4000204608F0CBFC204608F092FB01212046CB
:104D500009F036F9204608F01EFC204608F017FD41
:104D6000002070BD0146D1F8100370470146D1F80C
:104D70001403704710B50446204609F098F8002047
:104D800010BD70B504460D46002104F29F30415518
:104D9000113000EB451041612946204608F036FFEE
:104DA00070BD00BFFEE7000010B500200F4908608D
:104DB0000F48006820F440600D490860084600680C
:104DC00040F48060086000200A49C1F89402022083
:104DD0000BF03CF801200549086002200BF036F882
:104DE00000200449C1F8900210BD000090824342A7
:104DF000001C02400080434200B587B000BF002085
:104E000001901048006840F080000E490860084694
:104E1000006800F08000019000BF00BF30200290C9
:104E20000120039004900220059002A90648FDF796
:104E300039F80120054908600549C1F8900207B01A
:104E400000BD000030380240001C02409482434202
:104E50000080434210B500200F4908600F480068E9
:104E600020F440600D4908600846006840F4806006
:104E7000086001200A49C1F8940202200AF0E6FF06
:104E800001200549086002200AF0E0FF00200449E3
:104E9000C1F8900210BD000090824342001C024005
:104EA0000080434270B5054600241648006820F48F
:104EB000406014490860084600680860002616E053
:104EC00000201149086002200AF0C0FF01200F49AC
:104ED000C1F890026006040E0B487C38006808B1E7
:104EE000601CC4B201200AF0B1FF701CC6B2082ECB
:104EF000E6DB15B9FFF7AEFF01E0FFF755FF2046EF
:104F000070BD0000001C024090824342008043427A
:104F100070B504461548006820F4406013490860E5
:104F20000846006840F4806008600020104908606E
:104F3000002517E0E0090E49091D08606006040E0F
:104F400002200AF083FF01200A49C1F890020220E2
:104F50000AF07CFF00200649086002200AF076FF74
:104F6000681CC5B2082DE5DB70BD0000001C0240C6
:104F7000908243420080434210B50F48006820F4FD
:104F800040600D4908600846006840F48060086091
:104F900001200A4908600A49C1F8900204200AF079
:104FA00055FF00200549086004200AF04FFF00204B
:104FB0000349C1F8900210BD001C02409482434294
:104FC0000080434210B50F48006820F440600D494E
:104FD00008600846006840F48060086000200A49C4
:104FE00008600A49C1F8940204200AF02FFF01204A
:104FF000054908600549C1F8940204200AF026FF1B
:1050000010BD0000001C02409082434200804342D9
:1050100010B500241348006820F44060114908606E
:1050200008460068086001200F4908600AF00EFF7A
:1050300001200E49C1F890020AF008FF07E0601C49
:10504000C4B2FA2C03DDFFF7BDFF012010BD0648F6
:10505000803800680028F2D10349091F086000BFAA
:10506000F4E70000001C0240948243420080434267
:1050700000B587B000BF002001902648006840F0CE
:105080000100244908600846006800F00100019012
:1050900000BF00BF00BF002001900846006840F03C
:1050A000040008600846006800F00400019000BF9A
:1050B00000BF00BF002001900846006840F080005B
:1050C00008600846006800F08000019000BF00BF43
:1050D00001200290002003900220049003200590FC
:1050E00002A90D48FCF7DEFE4FF4005002900020AC
:1050F0000390012004900320059002A90748FCF7C3
:10510000D1FE0C20029002A90548FCF7CBFE07B0A7
:1051100000BD00003038024000000240000802409C
:10512000001C024010B50446012C01D12D49087025
:105130002C480078002839D008212B48FCF7C0FF04
:1051400080B104212848FCF7BBFF58B14FF400514F
:105150002648FCF7B5FF28B101212548FCF7B0FF30
:10516000012823D10A200AF065FE00201D4908709D
:1051700008211D48FCF7A4FF08B9012010BD042137
:105180001948FCF79DFF08B90220F7E74FF40051DA
:105190001648FCF795FF08B90320EFE701211448F2
:1051A000FCF78EFF01281BD10420E7E708210E48F9
:1051B000FCF786FF012813D104210B48FCF780FF80
:1051C00001280DD141030948FCF77AFF012807D1D6
:1051D00001210748FCF774FF10B90120014908704C
:1051E0000020CBE72B000020001C024000080240FA
:1051F0000000024070B5044600260D4805880D48A1
:10520000006818B1204602F065FF0FE008484088AA
:1052100045430021084602F04DFD02F01BFF002629
:1052200002E005490C80761CAE42FAD370BD000046
:10523000500D00207C0E00200000086010B50446D0
:105240005C4884715C48006850B1204602F068FFF9
:105250005948C08A574908805748008B488010BD7C
:10526000002C51D1F020534908804FF4A0704880A1
:105270000846808849F24131884205D04D488088EF
:1052800045F21031884214D12C204A4908812A2045
:1052900048812B2088810846808845F21031884259
:1052A00006D14FF4A070434908804FF4F070488055
:1052B0007BE04048808845F21051884210D14FF47D
:1052C00030503C4908814FF4285048814FF42C500D
:1052D00088814FF4F07008804FF44870488064E093
:1052E0003448808841F6631188425ED12C203149D0
:1052F00008812B2048812A2088814FF4F070088093
:105300004FF44870488050E04FF4A070294908805D
:10531000F02048800846808849F24131884205D013
:105320002448808845F21031884207D12C20214939
:1053300008812A2048812B20888129E01D48808807
:1053400045F21051884210D14FF43050194908816C
:105350004FF4285048814FF42C5088814FF4487006
:1053600008804FF4F070488012E01248808841F6BF
:10537000631188420CD12C200E4908812A204881D3
:105380002B2088814FF4487008804FF4F0704880DB
:105390000848808845F21031884206D14FF4F070F9
:1053A000044908804FF4A0704880002002F048FBB8
:1053B00000BF54E7500D00207C0E002070B504465D
:1053C0000D4616464348006828B132462946204615
:1053D00002F0BCFE70BD4048808849F241318842ED
:1053E00005D03D48808845F21031884214D13A49B1
:1053F000488902F023FE201202F014FEE0B202F00F
:1054000011FE3549888902F019FE281202F00AFEC1
:10541000E8B202F007FE54E02F48808845F21051B0
:10542000884220D12C49488902F008FE201202F05F
:10543000F9FD29494989491C88B202F0FFFDE0B213
:1054400002F0F0FD2449888902F0F8FD281202F0EC
:10545000E9FD21498989491C88B202F0EFFDE8B2D3
:1054600002F0E0FD2DE01C48808841F6631188427F
:1054700027D11948807920B917480088401E001BA1
:1054800084B21549488902F0D9FD201202F0CAFD04
:10549000E0B202F0C7FD201202F0C4FDE0B202F05B
:1054A000C1FD0D49888902F0C9FD281202F0BAFD3C
:1054B000E8B202F0B7FD281202F0B4FDE8B202F043
:1054C000B1FD0548008905490880891C0E8000BF90
:1054D00080E700007C0E0020500D0020FEFF0760DA
:1054E0002DE9F84F05460E4617469846DDF82890F8
:1054F0004FF0000B1448006840B143463A4631462D
:105500002846CDF8009002F049FE1BE0781B401CB5
:105510001FFA80FB344613E02146284602F0CAFBFE
:1055200002F098FD4FF0000A06E00849A1F800904B
:105530000AF101001FFA80FADA45F6DB601C84B23A
:105540004445E9DDBDE8F88F7C0E002000000860CE
:1055500000B595B003F046F8FE498880084680887B
:1055600018B102F0CDFE02F0F0B900BF00200190AA
:10557000F948006840F00200F749086008460068F2
:1055800000F00200019000BF00BF20201090012019
:10559000119012900320139010A9F048FCF782FCA0
:1055A0004FF02040EE490860EE48486000208860D7
:1055B0000021EB48C160016110214161002181613E
:1055C000C16141624FF4805181620021C1624FF498
:1055D000804101630021416381634FF48011C16305
:1055E0000F20099000200A9046200B9000200F9079
:1055F0000F200290002003900F20049000200890BC
:1056000002AA09A9D648FFF7E4F832200AF012FCF2
:10561000D32002F013FD02F0D9F9CE49888002F0C0
:10562000D5F9CC49888002F0D1F9CA49888008466A
:1056300080884FF6FF7101EA0020C649888002F099
:10564000C5F9C44989880843C249888008468088CA
:1056500049F24131884278D0D42002F0EFFC02F0C8
:10566000B5F9BC49888002F0B1F9BA49888002F0E6
:10567000ADF9B8498880084680884FF6FF7101EA85
:105680000020B449888002F0A1F9B2498988084312
:10569000B04988800846808845F21031884254D04D
:1056A0004FF45A4002F0CAFC02F090F9A9498880F0
:1056B0004FF45B4002F0C2FC02F088F9A5498880F3
:1056C000084680884FF6FF7101EA0020A1498880D2
:1056D0004FF45C4002F0B2FC02F078F99D498988F1
:1056E00008439C49888008468088B0F5004F02D165
:1056F00045F2105088809748808845F210518842C2
:1057000023D0A12002F09AFC02F060F99149888030
:1057100002F05CF98F498880084680884FF6FF7157
:1057200001EA00208B49888002F050F98949898874
:105730000843884988800846808845F2617188421C
:1057400003D141F66310834988808248818886A00E
:10575000FAF754FE7F48808849F2413188427CD173
:10576000CF2002F06BFC002002F05CFCC12002F0B4
:1057700059FC302002F056FCED2002F05FFC642062
:1057800002F050FC032002F04DFC122002F04AFC13
:10579000812002F047FCE82002F050FC852002F056
:1057A00041FC102002F03EFC7A2002F03BFCCB20B2
:1057B00002F044FC392002F035FC2C2002F032FCCF
:1057C000002002F02FFC342002F02CFC022002F01A
:1057D00029FCF72002F032FC202002F023FCEA2012
:1057E00002F02CFC002002F01DFC002002F01AFC4C
:1057F000C02002F023FC1B2002F014FCC12002F0A8
:105800001DFC012002F00EFCC52002F017FC302028
:1058100002F008FC302002F005FCC72002F00EFC6C
:10582000B72002F0FFFB362002F008FC482002F00F
:10583000F9FB3A2002F002FC552002F0F3FBB12004
:1058400002F0FCFB002002F0EDFB1A2002F0EAFB64
:10585000B62002F0F3FB0A2000E0ABE002F0E2FB2E
:10586000A22002F0DFFBF22002F0E8FB002002F0B1
:10587000D9FB262002F0E2FB012002F0D3FBE0205E
:1058800002F0DCFB0F2002F0CDFB2A2002F0CAFB65
:10589000282002F0C7FB082002F0C4FB0E2002F013
:1058A000C1FB082002F0BEFB542002F0BBFBA92084
:1058B00002F0B8FB432002F0B5FB0A2002F0B2FB75
:1058C0000F2002F0AFFB002002F0ACFB002002F042
:1058D000A9FB002002F0A6FB002002F0A3FBE120C0
:1058E00002F0ACFB002002F09DFB152002F09AFBB9
:1058F000172002F097FB072002F094FB112002F022
:1059000091FB062002F08EFB2B2002F08BFB562031
:1059100002F088FB3C2002F085FB052002F082FBB0
:10592000102002F07FFB0F2002F07CFB3F2002F0F2
:1059300079FB3F2002F076FB0F2002F073FB2B2057
:1059400002F07CFB002002F06DFB002002F06AFBFD
:10595000012011E0500D00203038024000040240C8
:10596000000D0020040100A0204C43442049443A8B
:1059700025780D0A0000000002F054FB3F2002F0E1
:1059800051FB2A2002F05AFB002002F04BFB0020C2
:1059900002F048FB002002F045FBEF2002F042FB42
:1059A000112002F04BFB78200AF044FA292002F083
:1059B00045FBD8E5FE48808845F21031884240F02A
:1059C0007C87ED2002F03AFB012002F02BFBFE2049
:1059D00002F028FBEE2002F031FBDE2002F022FB79
:1059E000212002F01FFBF12002F028FB012002F031
:1059F00019FBDF2002F022FB102002F013FBC42071
:105A000002F01CFB8F2002F00DFBC62002F016FBFB
:105A1000002002F007FBE22002F004FBE22002F08B
:105A200001FBE22002F0FEFABF2002F007FBAA20F1
:105A300002F0F8FAB02002F001FB0D2002F0F2FAB9
:105A4000002002F0EFFA0D2002F0ECFA002002F044
:105A5000E9FA112002F0E6FA002002F0E3FA192038
:105A600002F0E0FA002002F0DDFA212002F0DAFA7A
:105A7000002002F0D7FA2D2002F0D4FA002002F024
:105A8000D1FA3D2002F0CEFA002002F0CBFA5D20E0
:105A900002F0C8FA002002F0C5FA5D2002F0C2FA56
:105AA000002002F0BFFAB12002F0C8FA802002F014
:105AB000B9FA002002F0B6FA8B2002F0B3FA002007
:105AC00002F0B0FA962002F0ADFA002002F0AAFA35
:105AD000B22002F0B3FA002002F0A4FA002002F093
